:100139003F065B4F666D7D077F6F777C395E79710E
:1000F700758911758C4C758AD0758D4C758BD0D2DE
:10010700AFD2A9D2ABD28CD28E850C13AB0BAD0F6D
:07011700AF0E12007B80F225
:10007B008D118B12D2A77590F7C2A7D2A6EF1200E3
:10008B00CDD2A77590EFC2A7D2A6E51190013993F7
:10009B00F580D2A61200D5D2A77590FEC2A7D2A624
:1000AB00E5121200CDD2A77590FDC2A7D2A6E5131B
:1000BB001200CDD2A77590FBC2A7D2A675804002C5
:0200CB0000D360
:0C00CD0090013993F580C2A67F057E00EB
:1000D900D3EF9400EE940040147D6E7C00ED1D700A
:0D00E900011CED4C70F7EF1F70E61E80E368
:0100F60022E7
:03000B0002011ED1
:10011E00C0E0C0D0758C4C758AD00508E508B40ACD
:0B012E0005750800B2A5D0D0D0E0326B
:03001B0002001EC2
:10001E00C0E0C0F0C0D0758D4C758BD00509E509D8
:10002E0064147042F509050DE50DB43C05750D001F
:10003E00050AE50AB43C03750A00E50D75F00A845D
:10004E0075F00A8485F00EE50D75F00A8485F00FC3
:10005E00E50A75F00A8485F00CE50A75F00A8475D8
:0D006E00F00A8485F00BD0D0D0F0D0E03245
:0300000002000EED
:0C000E00787FE4F6D8FD7581130200F73E
:00000001FF
