:100097003F065B4F666D7D077F6F777C395E7971B1
:100003007509FE750801850990AF097801EF08802D
:100013000123D8FDF509E50890009793F580E508DD
:1000230064086005E508B401051200758003120039
:10003300750508E508C3940940CC750808E508D39D
:10004300940040BFAF097801EF08800103D8FDF5A4
:1000530009F590E50890009793F580E5086408603A
:1000630005E508B401051200758003120075150833
:0200730080CB40
:040075007FE87E039F
:10007900D3EF9400EE940040147D6E7C00ED1D706A
:0D008900011CED4C70F7EF1F70E61E80E3C8
:010096002247
:030000000200A754
:0C00A700787FE4F6D8FD758109020003A3
:00000001FF
