:10018A003F065B4F666D7D077F6F777C395E7971BD
:10011800758911758C4C758AD0758D4C758BD0D2BC
:10012800AFD2A9D2ABD28CD28E850D16850E17858B
:0D0138000F18AB0CAD12AF1112001E80ECC1
:10001E008D148B15D2A77590BFC2A7D2A6EF120171
:10002E0045D2A775907FC2A7D2A6E51490018A93F8
:10003E00F580D2A612014DD2A77590DFC2A7D2A627
:10004E0075804012014BD2A77590F7C2A7D2A6E5D4
:10005E0015120145D2A77590EFC2A7D2A6E51612CA
:10006E000145D2A77590FBC2A7D2A675804012019A
:10007E004BD2A77590FDC2A7D2A6E517120145D2A5
:0D008E00A77590FEC2A7D2A6E51802014595
:0C01450090018A93F580C2A67F037E0023
:10015100D3EF9400EE940040147D6E7C00ED1D7091
:0D016100011CED4C70F7EF1F70E61E80E3EF
:01016E00226E
:03000B0002016F80
:10016F00C0E0C0D0758C4C758AD00508E508B40A7C
:0B017F0005750800B2A5D0D0D0E0321A
:03001B0002009B45
:10009B00C0E0C0F0C0D0758D4C758BD00509E5095B
:1000AB0064147062F5090510E510B43C0575100079
:1000BB00050AE50AB43C05750A00050BE50BB418F7
:1000CB0003750B00E51075F00A8475F00A8485F052
:1000DB0011E51075F00A8485F012E50A75F00A84B3
:1000EB0075F00A8485F00CE50A75F00A8485F00D2D
:1000FB00E50B75F00A8475F00A8485F00FE50B7536
:0D010B00F00A8485F00ED0D0D0F0D0E032A4
:0300000002000EED
:0C000E00787FE4F6D8FD75811802011817
:00000001FF
