:1000CF003F065B4F666D7D077F6F777C395E797179
:10005700EF75F00A84FEEF75F00A8485F00AAF06A3
:10006700EF9000CF93F58075A0FD7F057E0012000D
:10007700B1E50A9000CF93F58075A0FE7F057E005D
:030087000200B1C3
:0400AD007F0A7E0048
:1000B100D3EF9400EE940040147D6E7C00ED1D7032
:0D00C100011CED4C70F7EF1F70E61E80E390
:0100CE00220F
:0E00DF00758901758C4C758AD0D2AFD2A922DA
:10000E002094131200AD20940D0508E508B43C03AE
:10001E00E4F5083094FD2095121200AD20950CE504
:10002E0008700375083C15083095FD20960C1200DB
:10003E00AD209606E4F5083096FD20970B1200AD24
:09004E002097053097FDB28C22C9
:0D00ED001200DF12000EAF0812005780F65F
:03000B0002008A66
:10008A00C0E0C0D0758C4C758AD00509E509B41456
:10009A000D7509000508E508B43C03750800D0D0C1
:0300AA00D0E03271
:030000000200FA01
:0C00FA00787FE4F6D8FD75810A0200ED65
:00000001FF
